{
  "contractName": "SimpleStorage",
  "abi": [
    {
      "constant": true,
      "inputs": [
        {
          "internalType": "uint256",
          "name": "",
          "type": "uint256"
        }
      ],
      "name": "ipfsHashes",
      "outputs": [
        {
          "internalType": "string",
          "name": "_ipfsHash",
          "type": "string"
        }
      ],
      "payable": false,
      "stateMutability": "view",
      "type": "function"
    },
    {
      "constant": false,
      "inputs": [
        {
          "internalType": "string",
          "name": "_ipfsHash",
          "type": "string"
        }
      ],
      "name": "set",
      "outputs": [],
      "payable": false,
      "stateMutability": "nonpayable",
      "type": "function"
    },
    {
      "constant": true,
      "inputs": [],
      "name": "get",
      "outputs": [
        {
          "internalType": "string",
          "name": "",
          "type": "string"
        }
      ],
      "payable": false,
      "stateMutability": "view",
      "type": "function"
    },
    {
      "constant": true,
      "inputs": [],
      "name": "array_length",
      "outputs": [
        {
          "internalType": "uint256",
          "name": "",
          "type": "uint256"
        }
      ],
      "payable": false,
      "stateMutability": "view",
      "type": "function"
    }
  ],
  "bytecode": "0x608060405234801561001057600080fd5b5061058e806100206000396000f3fe608060405234801561001057600080fd5b506004361061004c5760003560e01c80630cc008bd146100515780634ed3885e1461006f5780636d4ce63c1461012a578063a4de2f5c146101ad575b600080fd5b610059610254565b6040518082815260200191505060405180910390f35b6101286004803603602081101561008557600080fd5b81019080803590602001906401000000008111156100a257600080fd5b8201836020820111156100b457600080fd5b803590602001918460018302840111640100000000831117156100d657600080fd5b91908080601f016020809104026020016040519081016040528093929190818152602001838380828437600081840152601f19601f820116905080830192505050505050509192919290505050610261565b005b6101326102d3565b6040518080602001828103825283818151815260200191508051906020019080838360005b83811015610172578082015181840152602081019050610157565b50505050905090810190601f16801561019f5780820380516001836020036101000a031916815260200191505b509250505060405180910390f35b6101d9600480360360208110156101c357600080fd5b8101908080359060200190929190505050610375565b6040518080602001828103825283818151815260200191508051906020019080838360005b838110156102195780820151818401526020810190506101fe565b50505050905090810190601f1680156102465780820380516001836020036101000a031916815260200191505b509250505060405180910390f35b6000600180549050905090565b8060009080519060200190610277929190610434565b50600160405180602001604052808381525090806001815401808255809150509060018203906000526020600020016000909192909190915060008201518160000190805190602001906102cc9291906104b4565b5050505050565b606060008054600181600116156101000203166002900480601f01602080910402602001604051908101604052809291908181526020018280546001816001161561010002031660029004801561036b5780601f106103405761010080835404028352916020019161036b565b820191906000526020600020905b81548152906001019060200180831161034e57829003601f168201915b5050505050905090565b6001818154811061038257fe5b90600052602060002001600091509050806000018054600181600116156101000203166002900480601f01602080910402602001604051908101604052809291908181526020018280546001816001161561010002031660029004801561042a5780601f106103ff5761010080835404028352916020019161042a565b820191906000526020600020905b81548152906001019060200180831161040d57829003601f168201915b5050505050905081565b828054600181600116156101000203166002900490600052602060002090601f016020900481019282601f1061047557805160ff19168380011785556104a3565b828001600101855582156104a3579182015b828111156104a2578251825591602001919060010190610487565b5b5090506104b09190610534565b5090565b828054600181600116156101000203166002900490600052602060002090601f016020900481019282601f106104f557805160ff1916838001178555610523565b82800160010185558215610523579182015b82811115610522578251825591602001919060010190610507565b5b5090506105309190610534565b5090565b61055691905b8082111561055257600081600090555060010161053a565b5090565b9056fea265627a7a7231582056747d94e58ef089e9800faac8298d815bf50d72cb8c222d066c07a981b4428864736f6c63430005100032",
  "source": "pragma solidity >=0.4.16 <0.9.0;\n\n\n\ncontract SimpleStorage{\n    \n    string IpfsHash;\n    \n    // create struct called Ipfs, which contains the hash value of ipfs.\n    struct Ipfs{\n        string _ipfsHash;\n    }\n    \n    \n    Ipfs[] public ipfsHashes;\n\n    \n    \n    // set ipfs file hash\n    function set(string memory _ipfsHash) public{\n        IpfsHash = _ipfsHash;\n        ipfsHashes.push(Ipfs(_ipfsHash));\n    }\n    \n    function get() public view returns(string memory){\n        return IpfsHash;\n    }\n    \n    function array_length() public view returns(uint256){\n        return ipfsHashes.length;\n    }\n    \n    \n}",
  "sourcePath": "/media/block/Personal/EthereumBlockchainPy/ipfs_sol_truff_reactjs_integrate/src/eth/contracts/SimpleStorage.sol",
  "compiler": {
    "name": "solc",
    "version": "0.5.16+commit.9c3226ce.Emscripten.clang"
  },
  "schemaVersion": "3.4.3",
  "updatedAt": "2021-10-12T17:30:10.919Z",
  "networkType": "ethereum",
  "devdoc": {
    "methods": {}
  },
  "userdoc": {
    "methods": {}
  }
}